:1000000019C028C027C026C025C024C023C022C0D4
:1000100021C020C01FC01EC01DC01CC01BC01AC0F4
:1000200019C018C017C016C015C014C013C012C024
:1000300011C010C011241FBECFEFD2E0DEBFCDBF74
:1000400021E0A0E0B1E001C01D92A432B207E1F7C7
:1000500033D034C0D5CF80E006C0E82FF0E0E45FB5
:10006000FE4F10828F5F8831C0F3089584B18160A4
:1000700084B984B1826084B984B1846084B984B164
:10008000886084B984B1806184B984B1806284B9A4
:1000900084B1806484B984B1806884B98AB1816094
:1000A0008AB98AB182608AB98AB184608AB98AB110
:1000B00088608AB9D0DF0895D9DFFFCFF894FFCFE9
:00000001FF
