S0130000466C6970646F742D6C69622E73726563DB
S113000038C047C046C045C044C043C042C041C0D8
S113001040C03FC03EC03DC03CC03BC03AC039C0F8
S113002038C037C036C035C034C033C032C031C028
S113003030C02FC0070C0A03050E0901060D0B0280
S1130040040F14343212103036161B2B31111D2DAF
S11300503515192933131E2E20081A2A240C1C2C9A
S1130060220A1828260E3F3A21093B3C250D3D382B
S1130070230B11241FBECFEFD2E0DEBFCDBF21E0A2
S1130080A0E0B1E001C01D92A432B207E1F7EED0C6
S1130090F3C0B6CF80E006C0E82FF0E0E45FFE4F87
S11300A010828F5F8831C0F3089584B1816084B970
S11300B084B1826084B984B1846084B984B1886075
S11300C084B984B1806184B984B1806284B984B113
S11300D0806484B984B1806884B98AB181608AB942
S11300E08AB182608AB98AB184608AB98AB1886027
S11300F08AB9D0DF0895E62FF0E0EE0FFF1FE40F7A
S1130100F11DEC5CFF4F9491A0E0B1E093FB9927C3
S113011090F99C93949192FB992790F911969C9352
S1130120119794919695917012969C931297E491DD
S1130130E1701396EC931397E82FF0E0EE0FFF1F96
S1130140E20FF11DEE5BFF4F849185FB882780F958
S113015014968C93149784918295817015968C9340
S11301601597849183FB882780F916968C931697AC
S1130170849182FB882780F917968C931797849132
S11301808695817018968C931897E491E17019966E
S1130190EC9398950895883108F049C0673008F0C9
S11301A046C0423008F043C0982F9170262F21702A
S11301B04130F1F4911105C0211103C040E09BDFEF
S11301C036C0911106C0222321F021E040E093DFE4
S11301D02EC0992329F0211103C041E08CDF27C0F0
S11301E0992329F1222319F121E041E084DF1FC082
S11301F0911106C0211104C021E041E07CDF17C049
S1130200911106C0222321F020E041E074DF0FC0E9
S1130210992331F0211104C021E040E06CDF07C0D4
S1130220992329F0222319F020E040E064DF84B10F
S1130230816084B984B1826084B984B1846084B9F2
S113024084B1886084B984B1806184B984B18062E6
S113025084B984B1806484B984B1806884B98AB172
S113026081608AB98AB182608AB908951EDF41E04B
S10F027060E081E090DFFFCFF894FFCF46
S9030000FC
