S0130000466C6970646F742D6C69622E73726563DB
S113000019C028C027C026C025C024C023C022C0D0
S113001021C020C01FC01EC01DC01CC01BC01AC0F0
S113002019C018C017C016C015C014C013C012C020
S113003011C010C011241FBECFEFD2E0DEBFCDBF70
S113004021E0A0E0B1E001C01D92A532B207E1F7C2
S113005038D039C0D5CF10920C0108C0E82FF0E099
S1130060E35FFE4F10828F5F80930C0180910C013F
S11300708831A0F3089584B1816084B984B1826029
S113008084B984B1846084B984B1886084B984B14A
S1130090806184B984B1806284B984B1806484B994
S11300A084B1806884B98AB181608AB98AB1826076
S11300B08AB98AB184608AB98AB188608AB9CBDF87
S10D00C00895D9DFFFCFF894FFCFB5
S9030000FC
